S018000073656375726974795F73797374656D5F2E7372656331
S11300000C942A000C9447000C9447000C9447006D
S11300100C9447000C9447000C9447000C94470040
S11300200C9447000C9447000C9447000C94470030
S11300300C9447000C9447000C9447000C94470020
S11300400C9447000C9447000C9447000C94470010
S11300500C94470011241FBECFE5D4E0DEBFCDBF12
S113006010E0A0E6B0E0E0E5F9E002C005900D92F2
S1130070A03BB107D9F720E0A0EBB0E001C01D928E
S1130080A23BB207E1F70E9478020C94A6040C94F8
S1130090000061E00E945D03089561E00E94E803AE
S11300A0089561E080EB0E945D0361E081EB0E94B2
S11300B05D0361E082EB0E945D0361E083EB0E94DB
S11300C05D0361E080EB0E94E80361E081EB0E9444
S11300D0E80361E082EB0E94E80361E083EB0E94A5
S11300E0E80360E084EB0E945D0360E085EB0E941E
S11300F05D0360E086EB0E945D0360E087EB0E9495
S11301005D0361E084EB0E94E80361E085EB0E94FB
S1130110E80361E086EB0E94E80361E087EB0E945C
S1130120E8030895CF92DF92EF92FF920F931F930B
S1130130CF93DF93D12CCC24CA94D0E03FC0ED2ED2
S1130140F12CF701EC59FF4F60E080810E94E80335
S1130150C0E027C00C2F10E0F801E05AFF4F808167
S11301600E94730481111CC087E893E10197F1F7A1
S113017000C00000F801E05AFF4F80810E94730420
S11301808823C1F3C701880F991F880F991F8859C5
S11301909F4FFC01E00FF11FC080DD24D39403C006
S11301A0CF5FC430B8F2F701EC59FF4F61E08081B2
S11301B00E94E80391E0D91621F0DF5FD43008F4FF
S11301C0BECF8C2DDF91CF911F910F91FF90EF90B7
S11301D0DF90CF900895CF93C82F60E082EA0E9409
S11301E0E80360E083EA0E94E803C4FB662760F941
S11301F084EA0E94E803C5FB662760F985EA0E9449
S1130200E803C6FB662760F986EA0E94E8036C2FC0
S1130210661F6627661F87EA0E94E80361E080EA9A
S11302200E94E8038FE99FE00197F1F700C0000006
S113023060E080EA0E94E8038091B000813029F5F3
S11302406C2F617084EA0E94E803C1FB662760F9A1
S113025085EA0E94E803C2FB662760F986EA0E94E9
S1130260E803C3FB662760F987EA0E94E80361E0BC
S113027080EA0E94E8038FE99FE00197F1F700C04C
S1130280000060E080EA0E94E8038FE39FE10197A9
S1130290F1F700C00000CF91089561E080EA0E9468
S11302A05D0361E081EA0E945D0361E082EA0E94ED
S11302B05D0361E083EA0E945D0361E084EA0E94D9
S11302C05D0361E085EA0E945D0361E086EA0E94C5
S11302D05D0361E087EA0E945D032FEF86E791E00A
S11302E0215080409040E1F700C0000080E20E946D
S11302F0EB0080E20E94EB0080E80E94EB008FE9B3
S11303009FE00197F1F700C0000080E00E94EB003D
S113031080EF0E94EB008FE99FE00197F1F700C0A6
S1130320000080E00E94EB0080E10E94EB008FE37C
S11303309FE10197F1F700C0000080E00E94EB000C
S113034080E10E94EB008FE39FE10197F1F700C089
S1130350000081E08093B0000895CF93C82F61E03E
S113036082EA0E94E80360E083EA0E94E803C4FB97
S1130370662760F984EA0E94E803C5FB662760F9F2
S113038085EA0E94E803C6FB662760F986EA0E94B4
S1130390E8036C2F661F6627661F87EA0E94E8033E
S11303A061E080EA0E94E8038FE99FE00197F1F79A
S11303B000C0000060E080EA0E94E8036C2F6170D6
S11303C084EA0E94E803C1FB662760F985EA0E947B
S11303D0E803C2FB662760F986EA0E94E803C3FBD0
S11303E0662760F987EA0E94E80361E080EA0E94D8
S11303F0E8038FE99FE00197F1F700C0000060E097
S113040080EA0E94E8038FE39FE10197F1F700C0BF
S11304100000CF910895CF93DF93EC0103C00E94B5
S1130420AD01219688818111FACFDF91CF91089592
S113043081E00E94EB00089561E00E945D0308954D
S113044060E00E94E803089561E00E94E8030895D3
S113045061E080EC0E945D0361E081EC0E945D0339
S113046061E082EC0E945D0361E083EC0E945D0325
S113047061E087EC0E945D03089561E087EC0E94CF
S1130480E803089560E087EC0E94E8030895CF93A1
S1130490C82F682F617080EC0E94E803C1FB6627B7
S11304A060F981EC0E94E803C2FB662760F982ECE4
S11304B00E94E803C3FB662760F983EC0E94E8030B
S11304C0CF910895DC0190E00DC0292F30E0FD01AB
S11304D0E20FF31F4081FB01E20FF31F208142135F
S11304E005C09F5F943088F381E0089580E008950B
S11304F0EF92FF920F931F93CF93DF93CDB7DEB7A5
S113050029970FB6F894DEBF0FBECDBF0E94280214
S113051086EC0E941C0285EC0E941C0284EC0E9462
S113052049000E9451000E944D01B3C00E9418026C
S113053085EC0E94200286EC0E9420028CE790E069
S11305400E940B022FEF87EE93E0215080409040F1
S1130550E1F700C0000098C00E94180283E890E010
S11305600E940B022FEF80E792E0215080409040E0
S1130570E1F700C000000E941802E12CF12C1DC01C
S11305800E2D10E00E949200E1E0F0E0EC0FFD1F60
S1130590E00FF11F80838F3F81F08D3351F4E1E050
S11305A0F0E0EC0FFD1FE00FF11F1082FF24F39425
S11305B004C08AE20E94AD01E394FF2009F30E9483
S11305C0180268E770E0CE0101960E946202813051
S11305D0A1F483E990E00E940B0286EC0E942402BD
S11305E02FEF81EE94E0215080409040E1F700C06D
S11305F0000083E08093B10047C08091B100823055
S113060068F489E990E00E940B022FEF8DEE92E0EE
S1130610215080409040E1F700C000008091B1007B
S1130620823079F50E943D0219E0812F0E94470231
S11306302FEF86E791E0215080409040E1F700C021
S11306400000112311F01150F0CF0E9442028AEAF7
S113065090E00E940B0284EC0E944D0085EC0E9405
S113066024028FE39CE90197F1F700C0000085ECB8
S11306700E9420028FE39CE90197F1F700C000007B
S1130680EDCF8F5F8093B1008091B100833008F487
S113069063CF8091B100833008F448CF80E090E0CC
S11306A029960FB6F894DEBF0FBECDBFDF91CF9170
S11306B01F910F91FF90EF900895982F9F70807F66
S11306C0662309F442C0613009F081C0803BB1F077
S11306D018F4803A31F00895803CE9F0803D41F10E
S11306E008954AB321E030E0B90102C0660F771FD4
S11306F09A95E2F7CB01842B8ABB089547B321E096
S113070030E0B90102C0660F771F9A95E2F7CB017A
S1130710842B87BB089544B321E030E0B90102C0C3
S1130720660F771F9A95E2F7CB01842B84BB08955B
S113073041B321E030E0B90102C0660F771F9A95FA
S1130740E2F7CB01842B81BB0895803BB9F018F408
S1130750803A31F00895803CF9F0803D59F10895D4
S11307604AB321E030E0B90102C0660F771F9A95C1
S1130770E2F7CB01809584238ABB089547B321E037
S113078030E0B90102C0660F771F9A95E2F7CB01FA
S11307908095842387BB089544B321E030E0B901F8
S11307A002C0660F771F9A95E2F7CB0180958423E8
S11307B084BB089541B321E030E0B90102C0660F63
S11307C0771F9A95E2F7CB018095842381BB089526
S11307D0982F9F70807F662309F442C0613009F02E
S11307E081C0803BB1F018F4803A31F00895803C28
S11307F0E9F0803D41F108954BB321E030E0B901C7
S113080002C0660F771F9A95E2F7CB01842B8BBB4E
S1130810089548B321E030E0B90102C0660F771FA4
S11308209A95E2F7CB01842B88BB089545B321E068
S113083030E0B90102C0660F771F9A95E2F7CB0149
S1130840842B85BB089542B321E030E0B90102C096
S1130850660F771F9A95E2F7CB01842B82BB08952C
S1130860803BB9F018F4803A31F00895803CF9F0F7
S1130870803D59F108954BB321E030E0B90102C045
S1130880660F771F9A95E2F7CB01809584238BBB83
S1130890089548B321E030E0B90102C0660F771F24
S11308A09A95E2F7CB018095842388BB089545B3DC
S11308B021E030E0B90102C0660F771F9A95E2F794
S11308C0CB018095842385BB089542B321E030E0B9
S11308D0B90102C0660F771F9A95E2F7CB018095A4
S11308E0842382BB0895282F2F70807F803B91F052
S11308F018F4803A31F029C0803CA9F0803DE1F041
S113090024C089B390E002C0959587952A95E2F7B3
S11309108170089586B390E002C0959587952A95D5
S1130920E2F78170089583B390E002C095958795AE
S11309302A95E2F78170089580B390E002C09595FE
S113094087952A95E2F7817008950895F894FFCF6A
S1130950B4B5B6B7B0B1B2B33738392F3435362A57
S11309603132332D43303D2B3139350057454C431B
S11309704F4D00656E7465722074686520706173F4
S1130980733A0072696768740077726F6E672074D7
S1130990727920616761696E20006661696C640028
S9030000FC
